:020000020000FC
:1000000010C0189521C027C01895189518951895F7
:100010001895189518951895189518951895189578
:1000200018951BE11ABB12E017BB10E816BD10E0D3
:1000300016BD10E31BBF11E010BD14E012BB10E8A9
:1000400018B98FEF789474C0CA9B1895D89880FD22
:10005000D89A86951895B09B1895D89840FDD89A4F
:10006000842F8695189522273327D99AC19AFAD0DA
:10007000D998C198F7D0B2993160C19AF3D0C1989C
:10008000F1D0B2993260C19AEDD0C198EBD0B2995B
:100090003460C19AE7D0C198E5D0B2993860C19A6E
:1000A000E1D0C198DFD0B2993061C19ADBD0C1985C
:1000B000D9D0B2993062C19AD5D0C198D3D0B29973
:1000C0003064C19ACFD0C198CDD0B2993068C19A6E
:1000D000C9D0C198C7D0B2992160C19AC3D0C19884
:1000E000C1D0B2992260C19ABDD0C198BBD0B2999B
:1000F0002460C19AB7D0C198B5D0B2992860C19A8E
:10010000B1D0C198AFD0B2992061C19AABD0C1989B
:10011000A9D0B2992062C19AA5D0C198A3D0B299B2
:100120002064C19A9FD0C1989DD0B299206808954B
:100130009ADF932F9C7F20FD916030FD9260952780
:1001400023FF0ED022FF9E7F6395552721FD01C01E
:10015000516031FD01C0526067FD5527492FE8CF3E
:100160004FEE84D04FEF82D04FEE80D04FEF7ED055
:100170004FED7CD04FEF7AD04FED78D04FEF76D067
:100180004FEB74D04FEF72D04FE770D04FEF6ED07F
:100190004FEB6CD04FEF6AD04FE768D04FEF66D08F
:1001A0004DEF64D04FEF62D04EEF60D04FEF089527
:1001B0001127CD99FECF47D04BD0CD99116048D0B3
:1001C000CD99126045D0CD99146042D0CD99186078
:1001D0003FD0CD9910613CD0CD99106239D0CD99E6
:1001E000106436D0CD9910682ED00895DC9830D0A8
:1001F00010FDDC9A10FFDC9830D011FDDC9A11FF65
:10020000DC982BD012FDDC9A12FFDC9826D013FD6F
:10021000DC9A13FFDC9821D014FDDC9A14FFDC98E3
:100220001CD015FDDC9A15FFDC9817D016FDDC9A62
:1002300016FFDC9812D017FDDC9A17FFDC980DD062
:10024000DC9A06D0089503E300000A95E9F70895C3
:1002500006E600000A95E9F7089505E600000A950C
:10026000E9F7089504E10A95F1F708950FEF70EFAB
:100270000A95F1F70FEF7A95D9F70FEF70EF0A951E
:0A028000F1F70FEF7A95D9F7089512
:00000001FF
