:020000020000FC
:1000000010C0189523C02BC01895189518951895F1
:100010001895189518951895189518951895189578
:1000200018954BE14ABB42E047BB40E846BD40E083
:1000300046BD40E34BBF41E040BD44E042BB40E829
:1000400048B98FEF4FEF4BBB789478C0CA9B189597
:10005000D89880FDD89A869544604ABF1895B09B81
:100060001895D898F0FCD89A8F2D869545604ABF90
:10007000189522273327D99AC19A0ED1D998C198B9
:100080000BD1B2993160C19A07D1C19805D1B2990B
:100090003260C19A01D1C198FFD0B2993460C19A3F
:1000A000FBD0C198F9D0B2993860C19AF5D0C19807
:1000B000F3D0B2993061C19AEFD0C198EDD0B29926
:1000C0003062C19AE9D0C198E7D0B2993064C19A40
:1000D000E3D0C198E1D0B2993068C19ADDD0C1981F
:1000E000DBD0B2992160C19AD7D0C198D5D0B2994E
:1000F0002260C19AD1D0C198CFD0B2992460C19A60
:10010000CBD0C198C9D0B2992860C19AC5D0C19846
:10011000C3D0B2992061C19ABFD0C198BDD0B29965
:100120002062C19AB9D0C198B7D0B2992064C19A5F
:10013000B3D0C198B1D0B299206808959ADF932FB7
:100140009C7F20FD916030FD9260952723FF0ED0AB
:1001500022FF9E7F6395552721FD01C0516031FD2F
:1001600001C0526067FD5527F92EE8CF9FEEF92EAA
:1001700097D09FEFF92E94D09FEEF92E91D09FEF5C
:10018000F92E8ED09FEDF92E8BD09FEFF92E88D0CF
:100190009FEDF92E85D09FEFF92E82D09FEBF92E9F
:1001A0007FD09FEFF92E7CD09FE7F92E79D09FEF7B
:1001B000F92E76D09FEBF92E73D09FEFF92E70D0E9
:1001C0009FE7F92E6DD09FEFF92E6AD09DEFF92EA3
:1001D00067D09FEFF92E64D09EEFF92E61D09FEF8C
:1001E000F92E08951127CD99FECF47D04BD0CD9948
:1001F000116048D0CD99126045D0CD99146042D09D
:10020000CD9918603FD0CD9910613CD0CD99106246
:1002100039D0CD99106436D0CD9910682ED008957C
:10022000DC9830D010FDDC9A10FFDC9830D011FD46
:10023000DC9A11FFDC982BD012FDDC9A12FFDC98BF
:1002400026D013FDDC9A13FFDC9821D014FDDC9A34
:1002500014FFDC981CD015FDDC9A15FFDC9817D034
:1002600016FDDC9A16FFDC9812D017FDDC9A17FFFA
:10027000DC980DD0DC9A06D0089503E300000A95BF
:10028000E9F7089506E600000A95E9F7089505E6FE
:1002900000000A95E9F708950CE20A95F1F7089530
:1002A0000FEF70EF0A95F1F70FEF7A95D9F70FEF8F
:0E02B00070EF0A95F1F70FEF7A95D9F70895E0
:00000001FF
