:020000020000FC
:1000000010C018951FC025C01895189518951895FB
:100010001895189518951895189518951895189578
:10002000189513E11ABB18E017BB11E016BD10E3D9
:100030001BBF11E010BD14E012BB10E818B98FEF20
:10004000789474C0DA9B1895D89880FDD89A8695D4
:100050001895C09B1895D89840FDD89A842F8695FE
:10006000189522273327D99AC39AFAD0D998C398DA
:10007000F7D0B2993160C39AF3D0C398F1D0B29956
:100080003260C39AEDD0C398EBD0B2993460C39A72
:10009000E7D0C398E5D0B2993860C39AE1D0C3984D
:1000A000DFD0B2993061C39ADBD0C398D9D0B2996E
:1000B0003062C39AD5D0C398D3D0B2993064C39A72
:1000C000CFD0C398CDD0B2993068C39AC9D0C39865
:1000D000C7D0B2992160C39AC3D0C398C1D0B29996
:1000E0002260C39ABDD0C398BBD0B2992460C39A92
:1000F000B7D0C398B5D0B2992860C39AB1D0C3988D
:10010000AFD0B2992061C39AABD0C398A9D0B299AD
:100110002062C39AA5D0C398A3D0B2992064C39A91
:100120009FD0C3989DD0B299206808959ADF932FED
:100130009C7F20FD916030FD9260952723FF0ED0BB
:1001400022FF9E7F6395552721FD01C0516031FD3F
:1001500001C0526067FD5527492FE8CF4FEE84D08C
:100160004FEF82D04FEE80D04FEF7ED04FED7CD05E
:100170004FEF7AD04FED78D04FEF76D04FEB74D071
:100180004FEF72D04FE770D04FEF6ED04FEB6CD087
:100190004FEF6AD04FE768D04FEF66D04DEF64D095
:1001A0004FEF62D04EEF60D04FEF08951127CD99F9
:1001B000FECF47D04BD0CD99116048D0CD99126079
:1001C00045D0CD99146042D0CD9918603FD0CD99DB
:1001D00010613CD0CD99106239D0CD99106436D0E1
:1001E000CD9910682ED00895DC9830D010FDDC9A9F
:1001F00010FFDC9830D011FDDC9A11FFDC982BD079
:1002000012FDDC9A12FFDC9826D013FDDC9A13FF56
:10021000DC9821D014FDDC9A14FFDC981CD015FD6D
:10022000DC9A15FFDC9817D016FDDC9A16FFDC98D7
:1002300012D017FDDC9A17FFDC980DD0DC9A06D09F
:10024000089503E300000A95E9F7089506E6000023
:100250000A95E9F7089505E600000A95E9F708957B
:1002600004E10A95F1F708950FEF70EF0A95F1F7A1
:080270000FEF7A95D9F708950C
:00000001FF
